S01700004763634170706C69636174696F6E312E737265635B
S11300000C942A000C9447000C9447000C9447006D
S11300100C946D080C9447000C9447000C94470012
S11300200C9447000C9447000C9447000C94470030
S11300300C9447000C9447000C9447000C94470020
S11300400C9447000C9447000C9447000C94470010
S11300500C94470011241FBECFE5D8E0DEBFCDBF0E
S113006012E0A0E6B0E0E2E9FFE102C005900D92E3
S1130070AC3AB107D9F725E0ACEAB2E001C01D9271
S1130080A239B207E1F70E94D9080C94C70F0C9467
S11300900000CF92DF92EF92FF92DC0180E090E0CB
S11300A0C12CD12C760114C0382F2227E92FFF2729
S11300B08C91E827EE0FFF1FE657FF4F8081918157
S11300C0822793272FEFC21AD20AE20AF20A119664
S11300D0C416D506E606F70638F3FF90EF90DF90D6
S11300E0CF900895CF92DF92EF92FF92CF93C0E02A
S11300F00CC083E292E0C89FF001C99FF00D112467
S1130100E151FB4F81E08083CF5FCC2391F301C0A9
S1130110C82F0E94730A882329F081E08C0FC4360B
S1130120B8F3C82FC43608F088C04FEE52E060E040
S113013070E0CB010E94690C6091B5047091B60423
S11301408091B7049091B8046093BC027093BD028F
S11301508093BE029093BF022091B1042E3029F007
S1130160243019F0263009F06AC04FEE52E00E94A4
S1130170690CEDECF2E087A58093C90262A9609353
S1130180C80243A954A95093C7024093C60220ADA4
S113019031AD3093C5022093C402C0A8D1A8E12C8C
S11301A0F12CC092C002D092C102E092C202F0923D
S11301B0C3028091BC029091BD02A091BE02B09195
S11301C0BF02C80ED91EEA1EFB1EC092B802D0920E
S11301D0B902E092BA02F092BB02A62FB0E00E94EC
S11301E0CF0CDC01CB018C0D9D1DAE1DBF1D80937A
S11301F0B4029093B502A093B602B093B70252959D
S113020042954F7045275F7045276C017D01C40EF0
S1130210D51EE11CF11CC092B002D092B102E09252
S1130220B202F092B3028093AC029093AD02A09319
S1130230AE02B093AF0281E003C080E001C080E071
S1130240CF91FF90EF90DF90CF9008950F931F937D
S1130250CF93DF93009709F452C0FC012385213624
S113026019F0273709F04BC0EC0189859A85892B51
S113027081F08C819D81AE81BF812885BC01CD0137
S1130280620F711D811D911DAE014E5D5F4F0E9475
S1130290E30B8E010E5D1F4F6C8D7D8D8E8D9F8DBA
S11302A0A8010E94690C1093CC020093CB0288A190
S11302B0F80190E2899FE00DF11D11248C859D8544
S11302C0AE85BF85848F958FA68FB78F88A1F801DF
S11302D090E2899FE00DF11D1124178A168A88A1E6
S11302E0F80190E2899FE00DF11D1124118E108E0A
S11302F06C8D7D8D8E8D9F8DA8010E94E30B80E017
S113030090E0DF91CF911F910F9108958F929F926A
S1130310AF92BF92CF92DF92EF92FF920F931F930F
S1130320CF93DF93FC0104811581268137814091AD
S1130330B4025091B5026091B6027091B7020417ED
S1130340150726073707B8F06A017B01FFE1CF0ED6
S1130350D11CE11CF11C0C151D052E053F0558F49C
S11303600F5F1F4F2F4F3F4FFC01048315832683DC
S1130370378381E09EC0415E5F4F6F4F7F4F4017D0
S113038051076207730708F091C0EC018091B00235
S11303909091B102A091B202B091B30268017901C7
S11303A0C81AD90AEA0AFB0AC701B6012091C90290
S11303B030E040E050E00E94AD0C69017A0102E0B7
S11303C0C00ED11CE11CF11C460157019924AA243A
S11303D0BB24CD2CDE2CEF2CFF24AE014E5D5F4FF1
S11303E08091B8029091B902A091BA02B091BB0277
S11303F0BC01CD016C0D7D1D8E1D9F1D0E94690CDD
S11304008091B8029091B902A091BA02B091BB0256
S1130410C80ED91EEA1EFB1ECC8ADD8AEE8AFF8A2C
S1130420D501C401880F991FAA1FBB1FAC01BD01D0
S11304304F5F5F4F6F4F7F4FFE01E40FF51F22A107
S1130440422F50E060E070E0762F652F542F442750
S1130450FE01E80FF91F82A16A017B01C82AD701B6
S1130460C6019C01AD012250310941095109A091F5
S1130470C902B0E00E94DE0C0091B0021091B102FA
S11304802091B2023091B302DC01CB01800F911FA5
S1130490A21FB31F873F0FEF9007A105B10540F4DA
S11304A08C839D83AE83BF8381E003C080E001C061
S11304B080E090E0DF91CF911F910F91FF90EF903A
S11304C0DF90CF90BF90AF909F908F900895CF9280
S11304D0DF92EF92FF92CF93DF932115310591F0D4
S11304E02230310531F4FC01C484D584E684F784D8
S11304F010C02130310551F4FC01C088D188E28854
S1130500F38807C0C12CD12C760103C0C12CD12C97
S11305107601C40ED51EE61EF71EFF200CF462C041
S1130520FC0144855585668577854C155D056E050A
S11305307F050CF45AC0EC01108612861186108ACD
S1130540118A128A138A80819181A281B381848362
S11305509583A683B78324C00196A11DB11D888B02
S1130560998BAA8BBB8B29853A852F3FF1E03F07F6
S113057028F42F5F3F4F3A87298712C01A861986BD
S113058028852F5F28873091C902231748F08417E4
S11305909507A607B70720F41886CE010E948601A6
S11305A088899989AA89BB89B701A6018C159D05FB
S11305B0AE05BF0588F289859A85892BC9F08C819F
S11305C09D81AE81BF812885BC01CD01620F711D63
S11305D0811D911DAE014E5D5F4F0E94690C80E04C
S11305E090E008C081E090E005C081E090E002C0A6
S11305F080E090E0DF91CF91FF90EF90DF90CF907B
S11306000895CF92DF92EF92FF920F931F93CF93AF
S1130610DF93EC01488959896A897B894F5F5F4F71
S11306206F4F7F4F8C859D85AE85BF8548175907D1
S11306306A077B0708F046C0CC80DD80EE80FF802F
S11306408885C80ED11CE11CF11C8C899D89AE895A
S1130650BF89C816D906EA06FB0659F0AE014E5DFD
S11306605F4FC701B6010E94690CCC8ADD8AEE8A0D
S1130670FF8A29853A85FE01E20FF31F02A110E0EB
S113068088899989AA89BB890196A11DB11D888B86
S1130690998BAA8BBB8B2F3F81E0380728F42F5FFF
S11306A03F4F3A87298710C01A86198688858F5F3D
S11306B088879091C902891738F01886CE010E9464
S11306C0860102C00FEF1FEFC801DF91CF911F9188
S11306D00F91FF90EF90DF90CF9008954F925F922B
S11306E06F927F928F929F92AF92BF92EF92FF92FE
S11306F00F931F93CF93DF9300D000D000D0CDB7DA
S1130700DEB79E838D834A015B0109831A832B83A1
S11307103C83412C512C320117C0C7010E940103B4
S1130720AD81BE818D93BE83AD83B1E08B1A9108F8
S1130730A108B10881149104A104B10471F7EFEF89
S11307404E1A5E0A6E0A7E0A89819A81AB81BC8147
S1130750481659066A067B0668F3C301B201269659
S11307600FB6F894DEBF0FBECDBFDF91CF911F91BE
S11307700F91FF90EF90BF90AF909F908F907F90DC
S11307806F905F904F9008954F925F926F927F9217
S1130790AF92BF92CF92DF92EF92FF920F931F938B
S11307A0CF93DF9300D000D000D0CDB7DEB75C018B
S11307B08091B8029091B902A091BA02B091BB02A3
S11307C089839A83AB83BC8300E010E0E12CF12C95
S11307D051C0650192E2C90ED11CA60149805A801C
S11307E06B807C804E0C5F1C611C711CC301B201C8
S11307F00E94690CD50154964D925D926D927C9243
S11308005797D092F104C092F0041E821D8229C031
S1130810E091F004F091F1048D819E81880F991F7D
S1130820E80FF91F80819181892BB1F48FEF9FEF3D
S113083091838083F5016489758986899789A601E6
S11308400E94E30B1E2D00278D819E81080F191F26
S1130850A0E0B1E0BE83AD83ED81FE813196FE83DD
S1130860ED838D819E818F3F910591F288F29FEFF8
S1130870E91AF90A8091C4029091C502E816F906B2
S113088020F40115110509F4A4CFC80126960FB66A
S1130890F894DEBF0FBECDBFDF91CF911F910F91B2
S11308A0FF90EF90DF90CF90BF90AF907F906F90CC
S11308B05F904F900895DC0181E090E030E03AC011
S11308C02E32E1F4882339F0FB01E90FF11D208376
S11308D03F5F9F5F2FC04A0F5B1FFA013197208152
S11308E02A3239F408C0FB01E90FF11D20E220830C
S11308F09F5F9830C0F33F5F98E01CC02A3231F408
S11309009830B0F43F5F80E098E014C08FE9820F24
S11309108A3130F4FB01E90FF11D2052208304C019
S1130920FB01E90FF11D20833F5F9F5F80E002C060
S113093080E09BE09B3040F4432F50E0FD01E40F46
S1130940F51F20812111BCCF08953F924F925F92F1
S11309506F927F928F929F92AF92BF92CF92DF92CB
S1130960EF92FF920F931F93CF93DF93CDB7DEB730
S11309702D970FB6F894DEBF0FBECDBF6B012BE0F1
S1130980EEE6F0E0DE01119601900D922A95E1F772
S1130990BE016F5F7F4F0E945B04C6010E94C403C7
S11309A04C01A0E0B0E00097A105B10509F4BDC079
S11309B09C01AD012250310941095109A091C9029C
S11309C0B0E00E94DE0C0091B0021091B1022091BF
S11309D0B2023091B302DC01CB01800F911FA21F40
S11309E0B31FF60180839183A283B38384839583A9
S11309F0A683B783312C1D861C86E12CF12C56016D
S1130A00F2E2AF0EB11C8C859D852C01612C712CFA
S1130A108091AC029091AD02A091AE02B091AF0270
S1130A20BC01CD01640D751D861D971DA5010E9495
S1130A30690CB092CC02A092CB0200E010E05DC041
S1130A40A801440F551F42955295507F5427407F6B
S1130A505427E091CB02F091CC02E40FF51F83857B
S1130A608823D1F0853E09F043C018C08091CB02A1
S1130A709091CC029C01240F351F862F90E0E1E079
S1130A80F0E0EC0FFD1FE80FF91F7081F901E80F8A
S1130A90F91F70836F5F03C060E001C060E06B30DA
S1130AA028F3E091CB02F091CC02E40FF51F80E231
S1130AB08387938E828E148E158E168E178E809158
S1130AC0AC029091AD02A091AE02B091AF02BC0114
S1130AD0CD01640D751D861D971DF601648F758FFC
S1130AE0868F978F00A3A5010E94E30B33243394D0
S1130AF00F5F1F4FFFEFEF1AFF0A0031110518F4C3
S1130B00332009F49DCF311005C08C859D85019655
S1130B109D878C878091C6029091C702E816F906DA
S1130B2028F4332009F46BCF01C0312C832D2D968A
S1130B300FB6F894DEBF0FBECDBFDF91CF911F91EA
S1130B400F91FF90EF90DF90CF90BF90AF909F9068
S1130B508F907F906F905F904F903F9008956F9229
S1130B607F928F929F92AF92BF92CF92DF92EF9239
S1130B70FF920F931F93CF93DF93CDB7DEB72B97DD
S1130B800FB6F894DEBF0FBECDBF8B012BE0EEE6AF
S1130B90F0E0DE01119601900D922A95E1F7BE0175
S1130BA06F5F7F4F0E945B048091AC029091AD0215
S1130BB0A091AE02B091AF02F80184839583A6831D
S1130BC0B783B12CE12CF12CF80164817581868105
S1130BD097816801F2E2CF0ED11CA6010E94690C34
S1130BE0D092CC02C092CB02612C712C81C06301E3
S1130BF0CC0CDD1CCC0CDD1CCC0CDD1CCC0CDD1CAD
S1130C00CC0CDD1CA091CB02B091CC02AC0DBD1D6F
S1130C108C91853E21F420E01BC02F5F01C020E0B1
S1130C202B30B0F4822F90E0AD01480F591FFA0128
S1130C30408150E061E070E06C0F7D1F860F971FCC
S1130C40FC018081082E000C990B4817590729F3E1
S1130C502B3009F04AC01B968C911B9785FF45C029
S1130C605A962D913C915B97C901A0E0B0E09C019C
S1130C70AD012250310941095109A091C902B0E0E6
S1130C800E94DE0C8090B0029090B102A090B2025B
S1130C90B090B302DC01CB01880D991DAA1DBB1DC8
S1130CA0F80180839183A283B38384809580A68096
S1130CB0B780848E958EA68EB78E84839583A68303
S1130CC0B7838091CB029091CC02DC01AC0DBD1DA9
S1130CD05C968D919D910D90BC91A02D84879587F4
S1130CE0A687B78760A2BB24B394FFEF6F1A7F0A6D
S1130CF0B11005C020E16216710408F478CFB11078
S1130D0004C0C8010E9486017C01E114F10419F0B9
S1130D10BB2009F459CF8B2D2B960FB6F894DEBF68
S1130D200FBECDBFDF91CF911F910F91FF90EF9038
S1130D30DF90CF90BF90AF909F908F907F906F90F7
S1130D40089580E03FC0282F30E043E252E0249F22
S1130D50F001259FF00D349FF00D1124E151FB4F5C
S1130D609081913071F5249FC001259F900D349F8F
S1130D70900D112483539D4FFC01EE5DFD4F22E045
S1130D802083FC0113861082118212821382148242
S1130D90158216821782108612861186148615868D
S1130DA016861786108A118A128A138A148A158A5B
S1130DB0168A178A148E158E168E178E10A211A2FB
S1130DC008958F5F882309F4BECF80E090E00895F2
S1130DD0BC0190E01EC0492F50E0E3E2F2E04E9FD8
S1130DE090014F9F300D5E9F300D112423533D4FD2
S1130DF02617370769F423E232E0429FF001439F4C
S1130E00F00D529FF00D1124E151FB4F81E08083DE
S1130E109F5F992301F30895EF92FF921F93CF935D
S1130E20DF937C01162F0E94A106EC01009739F193
S1130E301B87BC01C7010E94AF05882359F01136F6
S1130E40F1F422E030E040E050E0BA01CE010E942B
S1130E50670215C0113611F0173761F4BE01C701DE
S1130E600E94A50481110BC0CE010E94E806C0E0D7
S1130E70D0E005C0CE010E94E806C0E0D0E0CE017B
S1130E80DF91CF911F91FF90EF900895CF93DF935F
S1130E90EC01009711F00E942601CE010E94E806A1
S1130EA0DF91CF9108959BB39F7B9BBB662321F079
S1130EB09BB390689BBB03C09BB39F779BBB92B3D0
S1130EC09F70807F892B82BB8BB380628BBB00C0F9
S1130ED000C08BB38F7D8BBB08959BB390649BBB89
S1130EE091B39F7091BB882321F08BB380688BBB37
S1130EF003C08BB38F778BBB8BB380628BBB00C07B
S1130F0000C08BB38F7D8BBB80B391B3906F91BBCB
S1130F109BB39F7B9BBB807F0895CF93DF93C82FA8
S1130F20D62F807F0E9453076D2F8C2F8295807F50
S1130F300E945307DF91CF910895CF93DF93C82F79
S1130F400E946D07D82F8C2F0E946D0782958F7099
S1130F508D2BDF91CF91089580E00E949D07882317
S1130F60DCF3089581B3806F81BB8AB3806E8ABB42
S1130F708FE295E70197F1F700C0000060E083E09D
S1130F800E94530787E090E20197F1F700C0000048
S1130F9060E083E00E94530787EC90E00197F1F74B
S1130FA000C0000060E083E00E94530787E090E205
S1130FB00197F1F700C0000060E082E00E9453074F
S1130FC00E94AC0760E088E20E948D070E94AC0793
S1130FD060E088E00E948D070E94AC0708950E949B
S1130FE0B20760E081E00E948D070E94AC0760E0D8
S1130FF086E00E948D070E94AC0760E08EE00E94AC
S11310008D070E94AC070895CF93C82F8091CA0220
S11310108823B1F0CA30A1F00E94AC0760E081E0FF
S11310200E948D070E94AC0760E082E00E948D0759
S11310300E94AC0760E080E80E948D071092CA020B
S1131040CA3021F481E08093CA0206C00E94AC0732
S113105061E08C2F0E948D0780E090E0CF9108958D
S1131060CF93DF93D82FC62F0E94AC07C23058F419
S1131070D03148F48D2F90E4C99F800D112460E095
S113108080680E948D07DF91CF9108958FE087BB20
S113109088BB11BA089587B3806B87BB81E58DB98E
S11310A081E08EB908958FB9779BFECF0895CF93D1
S11310B0C82F88B38F7E88BB9F70892F8061613071
S11310C011F4892F80690E9453088C2F0E945308C1
S11310D088B3806188BBCF9108951F920F920FB699
S11310E00F9211242F933F934F935F936F937F93AA
S11310F08F939F93AF93BF93EF93FF93E091F30488
S1131100F0E0EC50FB4F90818091F20440E060E00D
S1131110989FC00111240E9457088091F3048F5FA7
S11311208093F3048091F3048F738093F30498B352
S113113088E0892788BBFF91EF91BF91AF919F9180
S11311408F917F916F915F914F913F912F910F906C
S11311500FBE0F901F9018958AE085BD89EF83BD5F
S113116080E889BF0895CF93DF93CDB7DEB760974A
S11311700FB6F894DEBF0FBECDBF80E1EAE7F0E022
S1131180DE01119601900D928A95E1F789B3869557
S11311908F70E1E0F0E0EC0FFD1FE80FF11D80819E
S11311A060960FB6F894DEBF0FBECDBFDF91CF912E
S11311B0089580E690E090938F0580938E050E94B9
S11311C0460882991DC00E9472008823C9F062E714
S11311D08AE892E00E940C07EC017C0101E010E037
S11311E020E030E040E450E060E070E084EF94E020
S11311F00E946E03CE010E94460788B3816088BBBB
S1131200F8940E944B080E94AC080E94EF0778945F
S1131210839B20C08399FECF0E94B308813359F485
S1131220F8948091F204803129F08091F2048F5F68
S11312308093F20478940E94B308863459F4F894A5
S11312408091F204882329F08091F20481508093E4
S1131250F204789460E080E00E94300887E992E02C
S11312609F938F930E94E90C61E080E00E94300814
S11312708091F2041F928F9387EA92E09F938F9359
S11312800E94E90C0F900F900F900F900F900F9009
S1131290BFCFCF92DF92EF92FF920F931F93DC01A7
S11312A06A017B0190E060E011C0FD01E60FF11DD1
S11312B0308120E008C0990F532F592714F459E0C6
S11312C09527330F2F5F2830B0F36F5F062F10E0A0
S11312D020E030E00C151D052E053F0530F3892F65
S11312E090E0880F991F81601F910F91FF90EF90FC
S11312F0DF90CF900895CF93DF930E94860C0E94D5
S1131300A90CC0E0D0E00E94870C9E012F5F3F4FE4
S1131310C53FD14018F4E9018F3FA9F7DF91CF9180
S11313200895DF92EF92FF920F931F93CF93DF9371
S113133000D000D000D0CDB7DEB7182F042FF52E83
S1131340E62ED72E0E94860C0E94A90C0E947B09CF
S11313500E94860C0E94870C10641983DA82EB8247
S1131360FC820D8345E050E060E070E0CE01019620
S11313700E9449098E8300E010E00BC0E1E0F0E038
S1131380EC0FFD1FE00FF11F80810E948D0C0F5F99
S11313901F4F0630110590F30E94860C00E010E008
S11313A00E94870C98012F5F3F4F053F114018F4AE
S11313B089018F3FA9F326960FB6F894DEBF0FBEBE
S11313C0CDBFDF91CF911F910F91FF90EF90DF90F0
S11313D00895CF92DF92EF92FF92CF93C82F6A01C4
S11313E07B0140E050E0BA0187E30E949109882321
S11313F02CF0B701A6018C2F0E949109CF91FF9088
S1131400EF90DF90CF9008958F929F92AF92BF920A
S1131410CF92DF92EF92FF920F931F93CF93DF93BC
S11314206901470158010E949109811122C00E945B
S1131430860C0E94870C982F907FE9F08E3FC9F7A5
S1131440C0E0D0E008C086010C0F1D1F0E94870C6D
S1131450F80180832196CE01A0E0B0E088159905BB
S1131460AA05BB0580F30E94870C0E94870C80E0CC
S113147003C084E001C08AE0DF91CF911F910F91F6
S1131480FF90EF90DF90CF90BF90AF909F908F90A0
S11314900895EF92FF920F931F9310E1E12EF12C28
S11314A000E010E09C0140E050E0BA018AE00E94B4
S11314B0040A1F910F91FF90EF900895EF92FF920D
S11314C00F931F9310E1E12EF12C00E010E09C013A
S11314D040E050E0BA0189E00E94040A1F910F9194
S11314E0FF90EF900895CF92DF92EF92FF921F93B7
S11314F0CF93DF9300D000D000D0CDB7DEB70E94E9
S1131500950C109234050E94910C0E94860CC12CFB
S1131510D12C760108C08FEF0E948D0C2FEFC21AD8
S1131520D20AE20AF20A8FE0C816D104E104F104F7
S113153090F30EC0D701C6010196A11DB11D25E18E
S1131540C216D104E104F10408F019C16C017D0153
S113155040E050E0BA0180E00E94910980FFEACFA8
S11315604AEA51E060E070E088E00E949109882333
S11315700CF407C182FF04C081E08093350525C0C7
S113158082E080933505C12CD12C7601C3940EC022
S11315900E94870CE1E0F0E0EC0FFD1FEC0DFD1D57
S11315A080838FEFC81AD80AE80AF80A25E0C21621
S11315B0D104E104F10460F38D818A3A09F0E3C0B7
S11315C08C818F70813009F0E0C040E050E0BA01B6
S11315D08AE30E94910988230CF4D9C082FDD9C002
S11315E0C12CD12C7601C3940EC00E94870CE1E07B
S11315F0F0E0EC0FFD1FEC0DFD1D80838FEFC81A8A
S1131600D80AE80AF80A25E0C216D104E104F10474
S113161060F38B818073803309F0BDC040E050E0FB
S1131620BA0189E20E94E90988230CF4B6C080FD5E
S1131630F5CF8111B4C040E052E060E070E080E199
S11316400E9491098111ADC08AE395E00E94490A84
S1131650182F8111A7C08AE495E00E945E0A182F12
S11316608111A0C080914A058295869586958370E4
S113167021F0813009F44DC076C0E4E3F5E0238D18
S11316802F70848D837090E0A0E0B0E0AC01BD01C8
S1131690032E3AE0440F551F661F771F3A95D1F782
S11316A0302D958D892F90E0A0E0B0E0880F991F30
S11316B0AA1FBB1F880F991FAA1FBB1F842B952B22
S11316C0A62BB72B368D3295369536953370832BF2
S11316D0378D3370330F40A1441F4427441F432BDD
S11316E00196A11DB11D50E04E5F5F4F04C0880FED
S11316F0991FAA1FBB1F4A95D2F704C0880F991FD0
S1131700AA1FBB1F2A95D2F782839383A483B58330
S113171032C0E4E3F5E0858D8F7390E0A0E0B0E0A3
S1131720BC0155274427968D892F90E0A0E0B0E0B6
S1131730BA2FA92F982F8827842B952BA62BB72B4C
S1131740278D822B0196A11DB11D072E73E1880FF1
S1131750991FAA1FBB1F7A95D1F7702D828393839B
S1131760A483B58308C010923605109237051092F1
S113177038051092390581E08093340513C012E0D6
S113178011C014E00FC014E00DC015E00BC014E04C
S113179009C016E007C015E005C014E003C013E05B
S11317A001C01BE00E94910C812F26960FB6F8947D
S11317B0DEBF0FBECDBFDF91CF911F91FF90EF90A1
S11317C0DF90CF900895EF92FF920F931F93CF93E2
S11317D0DF938A01AB01BC01032E39E0440F551F8E
S11317E0661F771F3A95D1F7302D88E10E94910941
S11317F0811161C00E94860CC0E0D0E003C00E9449
S1131800870C2196C431D105D0F340E052E060E06A
S113181070E0C8010E944900F82EE92E8EEF0E9464
S11318208D0CC0E0D0E007C0F801EC0FFD1F8081F3
S11318300E948D0C2196C11582E0D807A8F38E2D45
S11318400E948D0C8F2D0E948D0C0E94860CC0E08E
S1131850D0E00E94870C9E012F5F3F4FC53FD140CF
S113186028F4E901982F9171913099F78F718B3099
S113187029F08D3111F1853041F402C088E022C095
S11318800E947B098F3FD9F402C08CE01BC040E06A
S113189050E0BA018DE00E949109882321F00E9452
S11318A0870C84E00FC00E94870C882351F00E94AB
S11318B0870C89E007C084E005C089E003C087E0A5
S11318C001C080E0DF91CF911F910F91FF90EF90C5
S11318D00895EF92FF920F931F939A01AB01BC01FD
S11318E0032E39E0440F551F661F771F3A95D1F731
S11318F0302DE12C12E0F12E00E010E081E10E9495
S1131900040A1F910F91FF90EF90089508958FEFAF
S11319108FB9779BFECF8FB108958FB9779BFECF98
S1131920089585B3806885BB089587B38F7B87BB93
S113193087B3806887BB87B3806287BB84B38068C2
S113194084BB87B3806187BB0E94910C82E58DB90B
S1131950089585B38F7785BB0895A1E21A2EAA1B3B
S1131960BB1BFD010DC0AA1FBB1FEE1FFF1FA2174B
S1131970B307E407F50720F0A21BB30BE40BF50B48
S1131980661F771F881F991F1A9469F760957095D1
S1131990809590959B01AC01BD01CF010895A29F54
S11319A0B001B39FC001A39F700D811D1124911D2F
S11319B0B29F700D811D1124911D08950E94CF0CBA
S11319C0A59F900DB49F900DA49F800D911D11248F
S11319D00895A0E0B0E0EFEEFCE00C94A00FAE019F
S11319E04B5F5F4FFA0161917191AF0180918E0558
S11319F090918F050E94FF0CE2E00C94BC0FABE0C9
S1131A00B0E0E5E0FDE00C94900F6C017B018A01ED
S1131A10FC0117821682838181FFCCC1CE0101961D
S1131A203C01F6019381F70193FD859193FF819128
S1131A307F01882309F4BAC1853239F493FD859175
S1131A4093FF81917F01853229F4B60190E00E94D1
S1131A50F60EE7CF912C212C312CFFE1F315D8F0B1
S1131A608B3279F038F4803279F08332A1F4232D6B
S1131A7020611DC08D3261F0803369F4232D216013
S1131A8016C0832D8260382EE32DE4603E2E2AC0DA
S1131A90F32DF8601DC037FC2DC020ED280F2A302F
S1131AA040F08E32B9F436FC81C1232D2064322EED
S1131AB019C036FE06C08AE0989E200D1124922E8D
S1131AC011C0EAE02E9E200D1124222EF32DF06287
S1131AD03F2E08C08C3621F4832D8068382E02C036
S1131AE0883641F4F70193FD859193FF81917F013D
S1131AF08111B3CF982F9F7D9554933028F40C5FB8
S1131B001F4F9FE399830DC0833631F0833771F003
S1131B10833509F059C021C0F801808189830E5FA3
S1131B201F4F88248394912C530113C02801F2E0A1
S1131B304F0E511CF801A080B18036FE03C0692D00
S1131B4070E002C06FEF7FEFC5010E94EB0E4C0105
S1131B508201F32DFF773F2E16C0280122E0420EAA
S1131B60511CF801A080B18036FE03C0692D70E0DD
S1131B7002C06FEF7FEFC5010E94E00E4C01F32D10
S1131B80F0683F2E820133FC1BC0822D90E0881642
S1131B909906B0F4B60180E290E00E94F60E2A9411
S1131BA0F4CFF50137FC859137FE81915F01B601D1
S1131BB090E00E94F60E21102A9421E0821A9108E6
S1131BC08114910471F7E8C0843611F0893641F527
S1131BD0F80137FE07C060817181828193810C5FB7
S1131BE01F4F08C060817181072E000C880B990B70
S1131BF00E5F1F4FF32DFF763F2E97FF09C0909580
S1131C008095709561957F4F8F4F9F4FF0683F2E61
S1131C102AE030E0A3010E94320F882E861845C0C6
S1131C20853731F4232D2F7EB22E2AE030E025C0F3
S1131C30932D997FB92E8F36C1F018F4883579F039
S1131C40B5C0803719F0883721F0B0C0E92FE061C2
S1131C50BE2EB4FE0DC0FB2DF460BF2E09C034FEB1
S1131C600AC0292F2660B22E06C028E030E005C045
S1131C7020E130E002C020E132E0F801B7FE07C005
S1131C8060817181828193810C5F1F4F06C06081E6
S1131C90718180E090E00E5F1F4FA3010E94320F1C
S1131CA0882E8618FB2DFF773F2E36FE0DC0232D80
S1131CB02E7FA22E891458F434FE0BC032FC09C0C6
S1131CC0832D8E7EA82E05C0B82CA32C03C0B82C5F
S1131CD001C0B92CA4FE0FC0FE01E80DF11D8081E6
S1131CE0803321F49A2D997EA92E09C0A2FE06C044
S1131CF0B394B39404C08A2D867809F0B394A3FCFA
S1131D0011C0A0FE06C0B21488F4280C922C9B18B3
S1131D100EC0B21460F4B60180E290E00E94F60EA8
S1131D20B394F7CFB21418F42B1802C0982C212CBA
S1131D30A4FE10C0B60180E390E00E94F60EA2FE5D
S1131D4017C0A1FC03C088E790E002C088E590E0DA
S1131D50B6010CC08A2D867859F0A1FE02C08BE230
S1131D6001C080E2A7FC8DE2B60190E00E94F60E6D
S1131D70891438F4B60180E390E00E94F60E9A9438
S1131D80F7CF8A94F301E80DF11D8081B60190E04C
S1131D900E94F60E8110F5CF222009F442CEB6013E
S1131DA080E290E00E94F60E2A94F6CFF601868136
S1131DB0978102C08FEF9FEF2B96E2E10C94AC0F5A
S1131DC0FC010590615070400110D8F78095909502
S1131DD08E0F9F1F0895FC01615070400190011007
S1131DE0D8F7809590958E0F9F1F08950F931F939A
S1131DF0CF93DF93FB01238121FD03C08FEF9FEF7E
S1131E002CC022FF16C04681578124813581421798
S1131E10530744F4A081B1819D012F5F3F4F31836B
S1131E2020838C93268137812F5F3F4F378326830E
S1131E3014C08B01EC01FB010084F185E02D0995B0
S1131E40892BE1F6D80116968D919C9117970196EE
S1131E5017969C938E931697CE01DF91CF911F9185
S1131E600F910895FA01AA27283051F1203181F108
S1131E70E8946F936E7F6E5F7F4F8F4F9F4FAF4F8E
S1131E80B1E03ED0B4E03CD0670F781F891F9A1FA1
S1131E90A11D680F791F8A1F911DA11D6A0F711D55
S1131EA0811D911DA11D20D009F468943F912AE061
S1131EB0269F11243019305D3193DEF6CF01089549
S1131EC0462F4770405D4193B3E00FD0C9F7F6CF7A
S1131ED0462F4F70405D4A3318F0495D31FD405242
S1131EE0419302D0A9F7EACFB4E0A69597958795D8
S1131EF077956795BA95C9F70097610571050895B7
S1131F009B01AC010A2E0694579547953795279562
S1131F10BA95C9F7620F731F841F951FA01D0895FA
S1131F202F923F924F925F926F927F928F929F92E5
S1131F30AF92BF92CF92DF92EF92FF920F931F93D3
S1131F40CF93DF93CDB7DEB7CA1BDB0B0FB6F89484
S1131F50DEBF0FBECDBF09942A88398848885F84C4
S1131F606E847D848C849B84AA84B984C884DF8035
S1131F70EE80FD800C811B81AA81B981CE0FD11D19
S1131F800FB6F894DEBF0FBECDBFED010895F894EF
S1051F90FFCF7D
S1131F9200000002000000000408000000002020ED
S1131FA220202020202020202000313233463435C6
S1131FB23645373839444130434400002110422029
S1131FC263308440A550C660E770088129914AA114
S1131FD26BB18CC1ADD1CEE1EFF13112100273328B
S1131FE25222B5529442F772D662399318837BB364
S1131FF25AA3BDD39CC3FFF3DEE36224433420041B
S11320020114E664C774A44485546AA54BB52885B3
S11320120995EEE5CFF5ACC58DD55336722611166A
S11320223006D776F6669556B4465BB77AA7199703
S11320323887DFF7FEE79DD7BCC7C448E5588668F2
S1132042A7784008611802282338CCC9EDD98EE953
S1132052AFF9488969990AA92BB9F55AD44AB77ACA
S1132062966A711A500A333A122AFDDBDCCBBFFBA3
S11320729EEB799B588B3BBB1AABA66C877CE44CDA
S1132082C55C222C033C600C411CAEED8FFDECCDF3
S1132092CDDD2AAD0BBD688D499D977EB66ED55EAA
S11320A2F44E133E322E511E700E9FFFBEEFDDDF43
S11320B2FCCF1BBF3AAF599F788F8891A981CAB1CF
S11320C2EBA10CD12DC14EF16FE18010A100C23001
S11320D2E3200450254046706760B9839893FBA3BC
S11320E2DAB33DC31CD37FE35EF3B1029012F32251
S11320F2D2323542145277625672EAB5CBA5A8950C
S113210289856EF54FE52CD50DC5E234C324A014A0
S113211281046674476424540544DBA7FAB799879B
S1132122B8975FE77EF71DC73CD7D326F2369106F0
S1132132B01657667676154634564CD96DC90EF9E3
S11321422FE9C899E9898AB9ABA944586548067840
S11321522768C018E1088238A3287DCB5CDB3FEBFB
S11321621EFBF98BD89BBBAB9ABB754A545A376A90
S1132172167AF10AD01AB32A923A2EFD0FED6CDDCB
S11321824DCDAABD8BADE89DC98D267C076C645CE0
S1132192454CA23C832CE01CC10C1FEF3EFF5DCFDB
S11321A27CDF9BAFBABFD98FF89F176E367E554E30
S11321B2745E932EB23ED10EF01E66696C65545065
S11321C233302E62696E00416D706C6966696361B9
S10F21D274696F6E3A20002530326400FE
S9030000FC
