S01600007361655F616D706C695F636F64652E7372656369
S11300000C942A000C9447000C9447000C9447006D
S11300100C9447000C9447000C9447000C94470040
S11300200C9447000C9447000C9447000C94470030
S11300300C9447000C9447000C9447000C94470020
S11300400C9447000C9447000C9447000C94470010
S11300500C94470011241FBECFE5D8E0DEBFCDBF0E
S113006010E0A0E6B0E0E0E5F2E002C005900D92F9
S1130070A43BB107D9F720E0A4EBB0E001C01D9286
S1130080A63BB207E1F70E94DA000C9426010C9417
S1130090000010BC89E189B988E08AB986E880BD8E
S11300A008955D9BFECF8CB908950E94490080EAB3
S11300B00E9451002FE788E391E021508040904056
S11300C0E1F700C000000895CF93DF93D82FC62F27
S11300D081EA0E9451008D2F0E9451008C2F0E94B2
S11300E051008FE39CE90197F1F700C00000DF9114
S11300F0CF9108950F931F93CF938C0182EA0E94AE
S11301005100C0E003C00E945100CF5FF801EC0F22
S1130110F11D80818111F7CF0E9451008FE39CE98A
S11301200197F1F700C00000CF911F910F9108953E
S11301308BE083BF12BE8CE78CBF089582E088BF3A
S113014008B601FEFDCF0895CF93DF93B69910C092
S113015013C00E949E002196C93B8BE0D80750F043
S11301609091B40081E0911180E08093B40004C0C8
S1130170C0E0D0E0B699EDCFDF91CF910895CF9351
S1130180DF93B59910C013C00E949E002196C93B0D
S11301908BE0D80750F09091B50081E0911180E098
S11301A08093B50004C0C0E0D0E0B599EDCFDF91F5
S11301B0CF9108950E9498000E94550017BA80ECD0
S11301C084BB80E681BB12BA18BA15BA0E94A40097
S11301D00E94BF008091B400813069F480E885BB3F
S11301E080E282BB60E080E00E94640080E690E0F0
S11301F00E947A00EBCF8091B500813061F480E4F5
S113020085BB82BB60E080E00E94640081E790E0EF
S11302100E947A00DBCF12BA15BA60E080E00E9437
S1130220640082E890E00E947A0062E080E00E942C
S1130230640081E990E00E947A0063E080E00E941B
S1130240640082EA90E00E947A00C0CFF894FFCF65
S113025048696768207061737320616374696620FC
S1130260004C6F772070617373206163746966203A
S113027020002020416D706C6920617564696F20D5
S11302800042502B202D3E206869676820706173FE
S1130290730042502D202D3E206C6F7720706173C7
S10702A073200000C3
S9030000FC
