S00B00007470312E7372656304
S11300000C942A000C9447000C9413020C9447009F
S11300100C9447000C9447000C9447000C94470040
S11300200C9447000C9447000C9449010C9447002D
S11300300C9447000C9447000C9447000C94470020
S11300400C9447000C9447000C9447000C94470010
S11300500C94470011241FBECFE5D8E0DEBFCDBF0E
S113006010E0A0E6B0E0E0EDFBE002C005900D92E8
S1130070A639B107D9F720E0A6E9B0E001C01D9286
S1130080AE39B207E1F70E947C010C94E6050C94AA
S113009000009BB39F7B9BBB662321F09BB39068BE
S11300A09BBB03C09BB39F779BBB92B39F70807F26
S11300B0892B82BB8BB380628BBB00C000C08BB327
S11300C08F7D8BBB08959BB390649BBB91B39F7052
S11300D091BB882321F08BB380688BBB03C08BB3A7
S11300E08F778BBB8BB380628BBB00C000C08BB39C
S11300F08F7D8BBB80B391B3906F91BB9BB39F7B80
S11301009BBB807F0895CF93DF93C82FD62F807F2A
S11301100E9449006D2F8C2F8295807F0E94490098
S1130120DF91CF910895CF93DF93C82F0E9463008E
S1130130D82F8C2F0E94630082958F708D2BDF91B6
S1130140CF91089580E00E9493008823DCF3089502
S113015081B3806F81BB8AB3806E8ABB8FE295E7DF
S11301600197F1F700C0000060E083E00E944900BD
S113017087E090E20197F1F700C0000060E083E0BF
S11301800E94490087EC90E00197F1F700C000005D
S113019060E083E00E94490087E090E20197F1F774
S11301A000C0000060E082E00E9449000E94A200BA
S11301B060E088E20E9483000E94A20060E088E080
S11301C00E9483000E94A20008950E94A80060E09B
S11301D081E00E9483000E94A20060E086E00E9409
S11301E083000E94A20060E08EE00E9483000E94CF
S11301F0A2000895CF93C82F809196008823B1F070
S1130200CA30A1F00E94A20060E081E00E94830055
S11302100E94A20060E082E00E9483000E94A2008B
S113022060E080E80E94830010929600CA3021F4B6
S113023081E08093960006C00E94A20061E08C2FAA
S11302400E94830080E090E0CF910895CF93DF93E4
S1130250D82FC62F0E94A200C23058F4D03148F4DF
S11302608D2F90E4C99F800D112460E080680E9466
S11302708300DF91CF9108958FE087BB11BA88BBCB
S113028012BA08958CE083BF8CE78CBF82E089BFEB
S113029008951F920F920FB60F9211248F939F937C
S11302A0AF93BF93809197008F5F809397008A3FAD
S11302B0A9F48091600090916100A0916200B091D6
S11302C063000196A11DB11D8093600090936100AD
S11302D0A0936200B093630010929700BF91AF9116
S11302E09F918F910F900FBE0F901F9018958CE0E7
S11302F085BF80E88BBF0895F8940E943C010E945A
S1130300E5000E9442010E94770184E690E0909308
S11303109B0080939A0078946091600070916100D2
S1130320809162009091630020E13EE040E050E063
S11303300E94E602CA01B90128E130E040E050E041
S11303400E94E602C62F6091600070916100809166
S11303506200909163000F2EFCE3CF2ED12CE12C90
S1130360F12CF02DA70196010E94E602CA01B90101
S1130370A70196010E94E602D62F60916000709159
S113038061008091620090916300A70196010E9430
S1130390E602F62E60E080E00E94260182E890E00A
S11303A09F938F930E94080361E080E00E942601DE
S11303B01F92FF921F92DF931F92CF9386E890E0E3
S11303C09F938F930E9408038DB79EB70A960FB62A
S11303D0F8949EBF0FBE8DBF9FCFCF93DF93CDB751
S11303E0DEB760970FB6F894DEBF0FBECDBF80E1D5
S11303F0E2E7F0E0DE01119601900D928A95E1F7B3
S113040089B386958F70E1E0F0E0EC0FFD1FE80FF3
S1130410F11D808160960FB6F894DEBF0FBECDBF8C
S1130420DF91CF9108951F920F920FB60F9211246E
S11304302F933F934F935F936F937F938F939F93E8
S1130440AF93BF93EF93FF930E94ED0128B391E024
S1130450922798BB8133A9F4809160009091610048
S1130460A0916200B0916300805F914FAF4FBF4F86
S11304708093600090936100A0936200B093630046
S113048094C0863411F540916000509161006091F0
S113049062007091630041315E4061057105A8F00E
S11304A08091600090916100A0916200B09163001E
S11304B080519E40A109B10980936000909361002E
S11304C0A0936200B093630070C08433A1F4809160
S11304D0600090916100A0916200B0916300CC969D
S11304E0A11DB11D8093600090936100A0936200F0
S11304F0B09363005AC0853409F54091600050916F
S1130500610060916200709163004D335105610593
S11305107105A0F08091600090916100A09162004B
S1130520B0916300CC97A109B109809360009093C6
S11305306100A0936200B093630037C08733A1F4D5
S11305408091600090916100A0916200B09163007D
S11305500196A11DB11D8093600090936100A0934A
S11305606200B093630021C08434F9F48091600088
S113057090916100A0916200B0916300CD97A105B4
S1130580B10598F08091600090916100A0916200A3
S1130590B09163000197A109B10980936000909321
S11305A06100A0936200B0936300FF91EF91BF914B
S11305B0AF919F918F917F916F915F914F913F91F7
S11305C02F910F900FBE0F901F901895A1E21A2E35
S11305D0AA1BBB1BFD010DC0AA1FBB1FEE1FFF1FE3
S11305E0A217B307E407F50720F0A21BB30BE40B33
S11305F0F50B661F771F881F991F1A9469F760957A
S11306007095809590959B01AC01BD01CF01089533
S1130610A0E0B0E0EEE0F3E00C94BF05AE014B5F68
S11306205F4FFA0161917191AF0180919A009091AD
S11306309B000E941E03E2E00C94DB05ABE0B0E0FB
S1130640E4E2F3E00C94AF056C017B018A01FC0148
S113065017821682838181FFCCC1CE0101963C01B1
S1130660F6019381F70193FD859193FF81917F01B9
S1130670882309F4BAC1853239F493FD859193FF37
S113068081917F01853229F4B60190E00E9415051D
S1130690E7CF912C212C312CFFE1F315D8F08B32CC
S11306A079F038F4803279F08332A1F4232D20617B
S11306B01DC08D3261F0803369F4232D216016C092
S11306C0832D8260382EE32DE4603E2E2AC0F32D64
S11306D0F8601DC037FC2DC020ED280F2A3040F0F3
S11306E08E32B9F436FC81C1232D2064322E19C018
S11306F036FE06C08AE0989E200D1124922E11C069
S1130700EAE02E9E200D1124222EF32DF0623F2EBE
S113071008C08C3621F4832D8068382E02C08836B8
S113072041F4F70193FD859193FF81917F0181113C
S1130730B3CF982F9F7D9554933028F40C5F1F4FAF
S11307409FE399830DC0833631F0833771F083358D
S113075009F059C021C0F801808189830E5F1F4FC1
S113076088248394912C530113C02801F2E04F0E86
S1130770511CF801A080B18036FE03C0692D70E0E1
S113078002C06FEF7FEFC5010E940A054C01820190
S1130790F32DFF773F2E16C0280122E0420E511C94
S11307A0F801A080B18036FE03C0692D70E002C05C
S11307B06FEF7FEFC5010E94FF044C01F32DF06839
S11307C03F2E820133FC1BC0822D90E088169906CF
S11307D0B0F4B60180E290E00E9415052A94F4CFAB
S11307E0F50137FC859137FE81915F01B60190E0F8
S11307F00E94150521102A9421E0821A910881147F
S1130800910471F7E8C0843611F0893641F5F80196
S113081037FE07C060817181828193810C5F1F4F15
S113082008C060817181072E000C880B990B0E5F44
S11308301F4FF32DFF763F2E97FF09C090958095AB
S1130840709561957F4F8F4F9F4FF0683F2E2AE040
S113085030E0A3010E945105882E861845C08537D3
S113086031F4232D2F7EB22E2AE030E025C0932DC3
S1130870997FB92E8F36C1F018F4883579F0B5C058
S1130880803719F0883721F0B0C0E92FE061BE2E1F
S1130890B4FE0DC0FB2DF460BF2E09C034FE0AC0A7
S11308A0292F2660B22E06C028E030E005C020E1E2
S11308B030E002C020E132E0F801B7FE07C06081F9
S11308C07181828193810C5F1F4F06C060817181A9
S11308D080E090E00E5F1F4FA3010E945105882E17
S11308E08618FB2DFF773F2E36FE0DC0232D2E7F5D
S11308F0A22E891458F434FE0BC032FC09C0832D97
S11309008E7EA82E05C0B82CA32C03C0B82C01C021
S1130910B92CA4FE0FC0FE01E80DF11D80818033C7
S113092021F49A2D997EA92E09C0A2FE06C0B39483
S1130930B39404C08A2D867809F0B394A3FC11C043
S1130940A0FE06C0B21488F4280C922C9B180EC08A
S1130950B21460F4B60180E290E00E941505B394ED
S1130960F7CFB21418F42B1802C0982C212CA4FE33
S113097010C0B60180E390E00E941505A2FE17C0E6
S1130980A1FC03C088E790E002C088E590E0B601CE
S11309900CC08A2D867859F0A1FE02C08BE201C0FA
S11309A080E2A7FC8DE2B60190E00E94150589144F
S11309B038F4B60180E390E00E9415059A94F7CFCD
S11309C08A94F301E80DF11D8081B60190E00E9444
S11309D015058110F5CF222009F442CEB60180E23C
S11309E090E00E9415052A94F6CFF601868197813E
S11309F002C08FEF9FEF2B96E2E10C94CB05FC0134
S1130A000590615070400110D8F7809590958E0F35
S1130A109F1F0895FC016150704001900110D8F7A8
S1130A20809590958E0F9F1F08950F931F93CF93DA
S1130A30DF93FB01238121FD03C08FEF9FEF2CC0C7
S1130A4022FF16C0468157812481358142175307FE
S1130A5044F4A081B1819D012F5F3F4F31832083F6
S1130A608C93268137812F5F3F4F3783268314C0B1
S1130A708B01EC01FB010084F185E02D0995892BA4
S1130A80E1F6D80116968D919C91179701961796C9
S1130A909C938E931697CE01DF91CF911F910F9166
S1130AA00895FA01AA27283051F1203181F1E89400
S1130AB06F936E7F6E5F7F4F8F4F9F4FAF4FB1E04D
S1130AC03ED0B4E03CD0670F781F891F9A1FA11D48
S1130AD0680F791F8A1F911DA11D6A0F711D811D49
S1130AE0911DA11D20D009F468943F912AE0269F0E
S1130AF011243019305D3193DEF6CF010895462F6D
S1130B004770405D4193B3E00FD0C9F7F6CF462F4D
S1130B104F70405D4A3318F0495D31FD40524193B6
S1130B2002D0A9F7EACFB4E0A69597958795779573
S1130B306795BA95C9F700976105710508959B01FA
S1130B40AC010A2E06945795479537952795BA9583
S1130B50C9F7620F731F841F951FA01D08952F925C
S1130B603F924F925F926F927F928F929F92AF9239
S1130B70BF92CF92DF92EF92FF920F931F93CF9386
S1130B80DF93CDB7DEB7CA1BDB0B0FB6F894DEBF1D
S1130B900FBECDBF09942A88398848885F846E8443
S1130BA07D848C849B84AA84B984C884DF80EE808D
S1130BB0FD800C811B81AA81B981CE0FD11D0FB696
S1130BC0F894DEBF0FBECDBFED010895F894FFCFBA
S1130BD0060E00000000000200000000FA00000001
S1130BE000003132334634353645373839444130E4
S1130BF0424354503100253032643A253032643A4D
S1090C00253032640000FF
S9030000FC
