:1000000029C0000042C0000040C000003EC0000007
:100010003CC000003AC0000038C0000036C00000FC
:1000200034C0000032C0000030C000002EC000000C
:100030002CC0000087C1000028C0000026C00000BE
:1000400024C0000022C0000020C000001EC000002C
:100050001CC0000011241FBECFE5D8E0DEBFCDBF1D
:1000600010E0A0E6B0E0E4E0F9E002C005900D92F7
:10007000A439B107D9F720E0A4E9B0E001C01D928E
:10008000AD39B207E1F716D13BC4BACF9BB39F7B22
:100090009BBB662321F09BB390689BBB03C09BB3C3
:1000A0009F779BBB92B39F70807F892B82BB8BB362
:1000B00080628BBB00C000C08BB38F7D8BBB08956B
:1000C0009BB390649BBB91B39F7091BB882321F03D
:1000D0008BB380688BBB03C08BB38F778BBB8BB329
:1000E00080628BBB00C000C08BB38F7D8BBB80B3A5
:1000F00091B3906F91BB9BB39F7B9BBB807F089517
:10010000CF93DF93C82FD62F807FC0DF6D2F8C2F2A
:100110008295807FBBDFDF91CF910895CF93DF93EE
:10012000C82FCEDFD82F8C2FCBDF82958F708D2BF1
:10013000DF91CF91089580E0F1DF8823E4F3089503
:1001400081B3806F81BB8AB3806E8ABB8FE295E7F3
:100150000197F1F700C0000060E083E097DF87E0DF
:1001600090E20197F1F700C0000060E083E08EDFCD
:1001700087EC90E00197F1F700C0000060E083E0B9
:1001800085DF87E090E20197F1F700C0000060E0B2
:1001900082E07CDFD0DF60E088E2B2DFCCDF60E0CD
:1001A00088E0AEDFC8CF0895CBDF60E081E0A8DF54
:1001B000C2DF60E086E0A4DFBEDF60E08EE0A0DFAB
:1001C000BACF0895CF93C82F80919400882381F0EF
:1001D000CA3071F0B0DF60E081E092DFACDF60E058
:1001E00082E08EDFA8DF60E080E88ADF1092940072
:1001F000CA3021F481E08093940004C09CDF61E068
:100200008C2F7EDF80E090E0CF91089594DF60E056
:1002100081E076CF0895CF93DF93D82FC62F8BDF61
:10022000C23050F4D03140F48D2F90E4C99F800D3E
:10023000112460E0806864DFDF91CF9108958FE042
:1002400087BB88BB81B3877F81BB85B78C6085BF47
:10025000089590BD89B986E880BD88E98AB9089576
:100260005D9BFECF8CB90895CF93DF93CDB7DEB7FA
:1002700060970FB6F894DEBF0FBECDBF80E1EEE60B
:10028000F0E0DE01119601900D928A95E1F789B3B5
:1002900086958F70E1E0F0E0EC0FFD1FE80FF11D97
:1002A000808160960FB6F894DEBF0FBECDBFDF91A0
:1002B000CF910895F894C3DF89E190E0CADF74DF3D
:1002C00080E690E090939A008093990078940AB623
:1002D00007FE1BC08AB780688ABFC6DFC82F88B3F5
:1002E0008E7F88BB8C2FBCDF60E080E094DF1F92A4
:1002F000CF938EE790E09F938F9336D088B3816041
:1003000088BB0F900F900F900F90809196008130D6
:10031000F1F61092960080919500863211F476DF06
:10032000D6CF61E080E077DF809195001F928F93B8
:1003300089E890E09F938F9317D00F900F900F90C4
:100340000F90C5CF1F920F920FB60F9211248F936B
:1003500081E0809396008CB1809395008F910F90EF
:100360000FBE0F901F901895A0E0B0E0E9EBF1E010
:10037000A0C2AE014B5F5F4FFA0161917191AF0175
:100380008091990090919A0002D0E2E0AEC2ABE079
:10039000B0E0ECECF1E07DC26C017B018A01FC0174
:1003A00017821682838181FFBFC1CE0101963C0175
:1003B000F6019381F70193FD859193FF81917F0170
:1003C000882309F4ADC1853239F493FD859193FFFB
:1003D00081917F01853221F4B60190E0C0D1E8CF50
:1003E000912C212C312CFFE1F315D8F08B3279F0D0
:1003F00038F4803279F08332A1F4232D20611DC0BE
:100400008D3261F0803369F4232D216016C0832D75
:100410008260382EE32DE4603E2E2AC0F32DF86072
:100420001DC037FC2DC020ED280F2A3040F08E3241
:10043000B9F436FC75C1232D2064322E19C036FE66
:1004400006C08AE0989E200D1124922E11C0EAE089
:100450002E9E200D1124222EF32DF0623F2E08C077
:100460008C3621F4832D8068382E02C0883641F402
:10047000F70193FD859193FF81917F018111B3CFA6
:10048000982F9F7D9554933028F40C5F1F4F9FE366
:1004900099830DC0833631F0833771F0833509F0CD
:1004A00055C020C0F801808189830E5F1F4F8824CA
:1004B0008394912C530112C02801F2E04F0E511C7D
:1004C000F801A080B18036FE03C0692D70E002C043
:1004D0006FEF7FEFC50138D14C018201F32DFF771B
:1004E0003F2E15C0280122E0420E511CF801A080C9
:1004F000B18036FE03C0692D70E002C06FEF7FEF60
:10050000C50117D14C01F32DF0683F2E820133FC59
:1005100019C0822D90E088169906A0F4B60180E2F9
:1005200090E01DD12A94F5CFF50137FC859137FE77
:1005300081915F01B60190E012D121102A9421E04F
:10054000821A91088114910479F7E1C0843611F080
:10055000893639F5F80137FE07C0608171818281E3
:1005600093810C5F1F4F08C060817181072E000CC2
:10057000880B990B0E5F1F4FF32DFF763F2E97FFD1
:1005800009C090958095709561957F4F8F4F9F4FD3
:10059000F0683F2E2AE030E0A3011DD1882E861896
:1005A00044C0853731F4232D2F7EB22E2AE030E06F
:1005B00025C0932D997FB92E8F36C1F018F4883558
:1005C00079F0AEC0803719F0883721F0A9C0E92F43
:1005D000E061BE2EB4FE0DC0FB2DF460BF2E09C03D
:1005E00034FE0AC0292F2660B22E06C028E030E073
:1005F00005C020E130E002C020E132E0F801B7FEA2
:1006000007C060817181828193810C5F1F4F06C09A
:100610006081718180E090E00E5F1F4FA301DBD00D
:10062000882E8618FB2DFF773F2E36FE0DC0232D1A
:100630002E7FA22E891458F434FE0BC032FC09C060
:10064000832D8E7EA82E05C0B82CA32C03C0B82CF9
:1006500001C0B92CA4FE0FC0FE01E80DF11D808180
:10066000803321F49A2D997EA92E09C0A2FE06C0DE
:10067000B394B39404C08A2D867809F0B394A3FC94
:1006800010C0A0FE06C0B21480F4280C922C9B1857
:100690000DC0B21458F4B60180E290E060D0B3947B
:1006A000F8CFB21418F42B1802C0982C212CA4FEF9
:1006B0000FC0B60180E390E052D0A2FE16C0A1FCAC
:1006C00003C088E790E002C088E590E0B6010CC066
:1006D0008A2D867851F0A1FE02C08BE201C080E233
:1006E000A7FC8DE2B60190E03AD0891430F4B6014F
:1006F00080E390E034D09A94F8CF8A94F301E80D27
:10070000F11D8081B60190E02AD08110F6CF222021
:1007100009F44ECEB60180E290E021D02A94F7CFC2
:10072000F6018681978102C08FEF9FEF2B96E2E161
:10073000CCC0FC010590615070400110D8F7809545
:1007400090958E0F9F1F0895FC016150704001909D
:100750000110D8F7809590958E0F9F1F08950F93E5
:100760001F93CF93DF93FB01238121FD03C08FEF04
:100770009FEF2CC022FF16C046815781248135810E
:100780004217530744F4A081B1819D012F5F3F4F71
:10079000318320838C93268137812F5F3F4F3783AE
:1007A000268314C08B01EC01FB010084F185E02D50
:1007B0000995892BE1F6D80116968D919C91179792
:1007C000019617969C938E931697CE01DF91CF9149
:1007D0001F910F910895FA01AA27283051F1203175
:1007E00081F1E8946F936E7F6E5F7F4F8F4F9F4FC5
:1007F000AF4FB1E03ED0B4E03CD0670F781F891F07
:100800009A1FA11D680F791F8A1F911DA11D6A0FD4
:10081000711D811D911DA11D20D009F468943F9187
:100820002AE0269F11243019305D3193DEF6CF0186
:100830000895462F4770405D4193B3E00FD0C9F74C
:10084000F6CF462F4F70405D4A3318F0495D31FDB9
:100850004052419302D0A9F7EACFB4E0A69597950C
:10086000879577956795BA95C9F7009761057105E2
:1008700008959B01AC010A2E06945795479537952C
:100880002795BA95C9F7620F731F841F951FA01D86
:1008900008952F923F924F925F926F927F928F9224
:1008A0009F92AF92BF92CF92DF92EF92FF920F93FF
:1008B0001F93CF93DF93CDB7DEB7CA1BDB0B0FB609
:1008C000F894DEBF0FBECDBF09942A8839884888C6
:1008D0005F846E847D848C849B84AA84B984C8845C
:1008E000DF80EE80FD800C811B81AA81B981CE0F53
:1008F000D11D0FB6F894DEBF0FBECDBFED01089538
:04090000F894FFCF99
:100904000000000200000000E2000000000031329C
:100914003346343536453738394441304243456EE1
:10092400766F69203A2025630052656375203A206A
:040934002563000037
:00000001FF
