S01600007361655F616D706C695F636F64652E7372656369
S11300000C942A000C943C000C943C000C943C008E
S11300100C943C000C943C000C943C000C943C006C
S11300200C943C000C943C000C943C000C943C005C
S11300300C943C000C943C000C943C000C943C004C
S11300400C943C000C943C000C943C000C943C003C
S11300500C943C0011241FBECFE5D8E0DEBFCDBF19
S113006020E0A0E6B0E001C01D92A136B207E1F79E
S11300700E9466000C947C000C9400008BE083BF0B
S113008012BE8CE78CBF089582E088BF08B601FEDB
S1130090FDCF0895CF93DF93B69911C014C00E9489
S11300A044002196C93B8BE0D80758F018BA81E088
S11300B090916000911180E08093600004C0C0E0E2
S11300C0D0E0B699ECCFDF91CF9108950E943E0025
S11300D080E881BB87BB12BA18BA84BB15BA0E94E8
S11300E04A0080916000813021F480E885BB82BBA6
S10F00F0F6CF12BA15BAF3CFF894FFCF84
S9030000FC
