:100000000C9451000C9479000C9479000C947900B4
:100010000C9479000C9479000C9479000C9479007C
:100020000C9479000C9479000C9479000C9479006C
:100030000C9479000C9479000C9479000C9479005C
:100040000C9479000C9479000C9479000C9479004C
:100050000C9479000C9479000C9479000C9479003C
:100060000C9479000C9479000C9479000C9479002C
:100070000C9479000C9479000C9479000C9479001C
:100080000C9479000C9479000C9479000C9479000C
:100090000C9473040C94FD040C94D7040C94790014
:1000A000010711241FBECFEFCDBFDFE3DEBF18E293
:1000B000A0E0B8E2EFEEFFE002C005900D92A6309E
:1000C000B107D9F728E2A6E0B8E201C01D92A33B30
:1000D000B207E1F710E0C1E5D0E004C02197FE01CE
:1000E0000E949007C035D107C9F70E9446050C94BD
:1000F000A5070C940000FC0154894589252F30E0A8
:10010000842F90E0821B930B541710F0CF96089524
:1001100001970895FC0192898389981761F0A3895A
:10012000AE0FBF2FB11D59968C9193899F5F9F731E
:10013000938B90E008958FEF9FEF0895FC019289D3
:100140008389981731F08389E80FF11D818D90E044
:1001500008958FEF9FEF0895FC0192892389892FDD
:1001600090E0805C9F4F821B91098F7399270895BF
:10017000CF93DF93EC01E881F9810680F781E02DD0
:100180000995EC85FD8586818F738683EC85FD85D9
:1001900085818F7585838B898A8B198ADF91CF91B1
:1001A0000895CF93DF93FC0194898589C485D58513
:1001B000981306C08D818F7D8D83DF91CF91089537
:1001C000A589AE0FBF2FB11DA75ABF4F2C918589AE
:1001D00090E001968F739927858B80E48C83A485AA
:1001E000B58512962C93948985899813E6CFA485BA
:1001F000B58515968C9115978F7D15968C9387896B
:100200008823D9F2808D80931301178AD6CFDC0121
:100210001C96ED91FC910FB607FE03C0258125FDCC
:1002200004C0248125FD0C94D1000895EF92FF9223
:100230000F931F93CF93DF93EC0181E0898B9C890F
:100240008D8998131CC0AC85BD8514968C9114972C
:1002500085FF15C012966C93AC85BD8580E414961D
:100260008C93EC85FD8585818F7D858381E090E091
:10027000DF91CF911F910F91FF90EF9008958091A2
:10028000110180FF08C080911301888F8E898093AF
:10029000130181E08F8BF62E0C8910E00F5F1F4F4A
:1002A0000F731127E02E8D898E1104C0CE010E949C
:1002B0000701F9CFEC89EC0FFD2FF11DE75AFF4F35
:1002C000F0820C8BEC85FD8585818062CECFCF934B
:1002D000DF93FC0121892223C9F0EC0180911101F7
:1002E00080FF08C080911301808F8689809313015D
:1002F00081E0878BEC85FD85858185FD03C0848148
:1003000086FD04C0CE010E940701F4CFDF91CF919A
:100310000895CF93DF9390E0FC01E254F04B2081ED
:100320002F3F71F0FC01EC55F04BA08130E2A39F10
:10033000D0011124BC5F6130710529F411962C9312
:10034000DF91CF9108958657904BEC01E881EF3F04
:1003500089F0CD014096E80FF92FF11D9FB7F89471
:1003600012962C9380816230710539F48860808305
:100370009FBFE6CFF0E0E0E0F1CF877FF8CF282FF6
:1003800030E0F901E059F04BE081EE2309F1E13072
:1003900021F0F0F0E63098F008954091010A2657D8
:1003A000304BF90120812C5F81E090E001C0880F83
:1003B0002A95EAF7809584238093010A089580E1C5
:1003C000E89FF0011124E05AF54F81818F7E8183EF
:1003D0000895FF920F931F93CF93DF93082F10E0A0
:1003E000F801E254F04BF0809FEFF916A1F0EB0119
:1003F0008B3210F40E94BF01F801EC55F04BE08104
:1004000080E2E89FF0011124FC5F80818F2159F088
:10041000CD2B39F4F682DF91CF911F910F91FF9090
:100420000895F582F8CFD801A657B04B8C9130973C
:1004300071F08F3F61F07096E80FF11D9FB7F8944F
:100440008081CD2B39F4877F80839FBFE4CFF0E09C
:10045000E0E0F4CF8860F8CF0F931F93CF93082F7D
:1004600010E0F801E254F04BC081CF3FA9F00E94A8
:10047000BF01F801EC55F04BE08180E2E89FF0010C
:100480001124FC5F8085C82381E090E009F480E0BE
:10049000CF911F910F91089580E090E0F9CF8B32BA
:1004A00010F40C94E9010895CF92DF92EF92FF923D
:1004B0000F931F93CF93DF93EC016A017B01022F0F
:1004C0008989882339F0E881F9810288F389E02D50
:1004D000CE01099598898091E205892B8093E205E8
:1004E0001FB7F89460E070E281EA97E0A7019601F7
:1004F0000E943C0769017A018FEFC81AD80AE80AFE
:10050000F80AF694E794D794C794EC85FD85868124
:100510008D7F8683EC85FD8586818683198AA091EF
:1005200023110A2E000CBB0BA70196010E9488071D
:1005300020E034E040E050E00E945E07EC85FD855D
:10054000C20ED31EE41EF51EC086D186EC85FD8545
:100550000783EC85FD858681806C8683EC85FD852F
:100560008581806885838E858B3220F462E070E01F
:100570000E9489018F8561E070E00E944F028F85A3
:100580008B3220F461E070E00E9489011FBFDF918F
:10059000CF911F910F91FF90EF90DF90CF90089532
:1005A000EF92FF920F931F93CF93DF93E82EF12CDE
:1005B000F701E657F04BC081CF3F09F448C08B01EB
:1005C000D82F61E070E00E9489010115110559F4EE
:1005D00070E060E08D2FDF91CF911F910F91FF9020
:1005E000EF900C944F02F701E059F04BE081E130BD
:1005F00099F070F3E63060F770E1E79FF0011124A5
:10060000E05AF54F8FB7F8949485948705878FBF8C
:100610008181806181831BC02FB7F8948C2F90E07B
:10062000FC01EE0FFF1FE85CF54F008311832FBF25
:100630002091010A049641E050E0BA0102C0660F21
:10064000771F8A95E2F7CB01822B8093010ADF9115
:10065000CF911F910F91FF90EF900895E82FF0E058
:10066000E65AF04B80818F30A0F48093060681E03B
:100670008093080680910B0680FFFCCF2FB7F8947B
:1006800090911006809111062FBF892798278927FE
:1006900008958FEF90E00895CF93DF938FB7F8948C
:1006A0002091142830911528409116285091172830
:1006B000E091BA0A9091B60A90FF06C02F5F3F4FB3
:1006C0004F4F5F4FE091BA0A8FBFA0911228B091AF
:1006D0001328C0911028D09111280E947D07EC9F0B
:1006E0009001ED9F300D1124620F731F811D911D2C
:1006F000DF91CF9108958F929F92AF92BF92CF9248
:10070000DF92EF92FF924B015C010E944C036B0160
:100710007C01A8EEB3E0A50194010E947D07C60EFE
:10072000D71EE81EF91EC616D706E806F90618F405
:100730000E944C03F8CF0E944C036C157D058E057A
:100740009F05C8F3FF90EF90DF90CF90BF90AF90E0
:100750009F908F900895AF92BF92CF92DF92EF92C9
:10076000FF920F931F93CF93DF936C017B018B015B
:10077000040F151FEB015E01AE18BF08C017D107AB
:1007800059F06991D601ED91FC910190F081E02D35
:10079000C6010995892B79F7C501DF91CF911F918A
:1007A0000F91FF90EF90DF90CF90BF90AF900895A2
:1007B00081E008950F931F93CF93DF938FE00E9402
:1007C0002E038C0182E00E942C02EC018EE00E943C
:1007D0002E039C0181E00739110534F4219721F0A3
:1007E000273931050CF480E0DF91CF911F910F91F3
:1007F000089570E060E089E00E94D00270E060E05F
:100800008AE00C94D00263E570E089E00E94D00297
:1008100062E370E08AE00E94D00261E070E088E06C
:100820000E94E90161E070E087E00E94E9016EE169
:1008300070E080E090E00E947B030C94F90362E397
:1008400070E089E00E94D00263E570E08AE00E94D7
:10085000D00270E060E088E00E94E90170E060E0B2
:1008600087E00E94E9016EE170E080E090E00E9484
:100870007B030C94F9036EE670E089E00E94D002DD
:1008800067E670E08AE00E94D00261E070E088E0F4
:100890000E94E90170E060E087E00C94E901DC016E
:1008A000ED91FC910088F189E02D23E030E009947E
:1008B000FC0101900020E9F73197AF01481B590B6B
:1008C000BC0188E198E20C94AB03CF93DF930E94C4
:1008D0005804EC0188ED9FE40E9458048C0F9D1F82
:1008E000DF91CF9108951F920F920FB60F921124AE
:1008F0002F933F934F935F936F937F938F939F9328
:10090000AF93BF9340910C2850910D2860910E2811
:1009100070910F2880910A2890910B282091082827
:1009200030910928420F531F611D711D2091062827
:1009300030910728820F931F883E23E0920730F002
:10094000885E93404F5F5F4F6F4F7F4F80930A28C1
:1009500090930B2840930C2850930D2860930E28F9
:1009600070930F288091142890911528A091162833
:10097000B09117280196A11DB11D80931428909362
:100980001528A0931628B093172881E08093B60A03
:10099000BF91AF919F918F917F916F915F914F9197
:1009A0003F912F910F900FBE0F901F9018951F929F
:1009B0000F920FB60F9211242F933F934F935F9393
:1009C0006F937F938F939F93AF93BF93EF93FF9317
:1009D00088E198E20E94D100FF91EF91BF91AF9121
:1009E0009F918F917F916F915F914F913F912F9147
:1009F0000F900FBE0F901F9018951F920F920FB679
:100A00000F9211242F933F934F935F936F937F9394
:100A10008F939F93AF93BF93EF93FF93E09124281D
:100A2000F0912528818181FD2FC0608180912A2845
:100A30008F5F8F7390912B28891741F0E0912A28BE
:100A4000F0E0E85EF74D618F80932A288091B1280D
:100A50009091B228009739F0DC01ED91FC91019062
:100A6000F081E02D0995FF91EF91BF91AF919F919A
:100A70008F917F916F915F914F913F912F910F9047
:100A80000FBE0F901F9018958081EDCFCF93DF930D
:100A9000CDB7DEB7A197CDBFDEBF88ED90E084BFB4
:100AA0009093610080E094E2A4EFB0E0809300288E
:100AB00090930128A0930228B09303288091020606
:100AC0008660809302068091000681608093000614
:100AD000809102068F7C809302068091A0008F781F
:100AE0008093A0008091020680618093020610929C
:100AF000E20581E08093E40583E08093010A8FEFB3
:100B000090E08093260A9093270A80E890E08093F3
:100B1000380A9093390A80933A0A90933B0A80935B
:100B20003C0A90933D0A8BE08093000A8091E50592
:100B300081608093E5058091E50582608093E505FD
:100B4000E0E8FAE037E02FEF90E885E03183248792
:100B5000958780837096E03C4AE0F407B9F780E01F
:100B600094E08093122890931328809112289091FA
:100B700013282FEF30E0B9010E9428076093102856
:100B8000709311288091122890911328E8EEF3E0D9
:100B9000BF010E942807609308287093092880915C
:100BA000122890911328BF010E94280780930628DD
:100BB000909307282093BC0A3093BD0A8091B50A10
:100BC00081608093B50A84E08093B00A8091B00A76
:100BD00081608093B00A789461E070E088E00E94C0
:100BE000890161E070E08AE00E94890161E070E0C3
:100BF00087E00E94890161E070E089E00E9489013C
:100C000070E060E086E00E94890170E060E08FE0C3
:100C10000E94890170E060E082E00E94890170E03A
:100C200060E08EE00E94890170E060E081E10E9456
:100C3000890161E070E084E00E94890140E855E2AA
:100C400060E070E088E198E20E944F048AE0882E1C
:100C5000912CA12CB12C90E0E92E90E0F92E24E00B
:100C6000722E33E0632E2091042830E050E040E003
:100C700019A28E010F5D1F4FCA01B901A501940190
:100C80000E943C07605DF80162938F0121153105D8
:100C90004105510589F7309719F0CF010E9458049A
:100CA00088ED9FE40E94580410910428133009F441
:100CB00045C0B8F41130E9F0123021F180910428D8
:100CC000833009F452C008F045C0813009F447C0B0
:100CD000823009F447C0E114F10429F20E940000B7
:100CE000C2CF143091F1163049F786E00E942C02F1
:100CF00029C086E00E942C02892B89F182E0809332
:100D00000428DCCF81E10E942E03873991054CF045
:100D10000E943B040E94DA03813069F46092042847
:100D200003C086E0809304280E94DA03882331F20E
:100D300070920428C3CF10930428F6CF0E94DA03E0
:100D40008823E1F210930428B9CF0E94DA0381309E
:100D5000A9F6EECF843021F1863009F0BCCF0E9495
:100D6000F903B9CF0E943B04B6CF6BE470E089E091
:100D70000E94D0026AE570E08AE00E94D00270E032
:100D800060E088E00E94E90161E070E087E00E9495
:100D9000E90168EC70E080E090E00E947B03DFCF27
:100DA0008FE00E942E038C0182E00E942C026C01D5
:100DB0008EE00E942E03CA94CD28E1F48739910574
:100DC0008CF00E941F048BED9FE40E94650483CF8A
:100DD0000E94F90389EE9FE4F8CF873991050CF45E
:100DE0007ACFEFCF073911059CF30E94030482EEFE
:100DF0009FE4EBCF0739110584F3873991050CF790
:100E0000F4CFE8E1F8E21282138288EE93E0A0E0EA
:100E1000B0E084839583A683B78382E59FE48083D3
:100E2000918380E698E08487958788E1868789E1C9
:100E3000878780E4808B128A138A148A158A86E257
:100E4000868B178A108E1092B1281092B2280895BE
:100E5000AA1BBB1B51E107C0AA1FBB1FA617B707E0
:100E600010F0A61BB70B881F991F5A95A9F78095FC
:100E70009095BC01CD010895A1E21A2EAA1BBB1BBF
:100E8000FD010DC0AA1FBB1FEE1FFF1FA217B30756
:100E9000E407F50720F0A21BB30BE40BF50B661F6C
:100EA000771F881F991F1A9469F760957095809530
:100EB00090959B01AC01BD01CF010895052E97FBD4
:100EC0001EF400940E94750757FD07D00E943C074E
:100ED00007FC03D04EF40C9475075095409530955F
:100EE00021953F4F4F4F5F4F089590958095709596
:100EF00061957F4F8F4F9F4F08950E949607A59F42
:100F0000900DB49F900DA49F800D911D1124089504
:100F1000B7FF0C947D070E947D07821B930B0895F9
:100F2000EE0FFF1F0590F491E02D0994A29FB001F0
:100F3000B39FC001A39F700D811D1124911DB29F0D
:0E0F4000700D811D1124911D0895F894FFCFAE
:100F4E00000000001601AB037B006701AC008A00B5
:100F5E009E004F045402B800D803030201000C0D8A
:100F6E000405000000030001020000010100000062
:100F7E000000000000000000000000000504000555
:100F8E000602040103000100010203020100020334
:100F9E000405020305040202000502010500040116
:100FAE000104040403030303050503030000010108
:100FBE00201001204004100208010201020408045E
:100FCE00020104081020040820100D0A0047617564
:100FDE006368650044726F6974650041727265746E
:010FEE000002
:060FEF000024F4000100E3
:00000001FF
